:020000040800F2
:10000000F0070020B1010008351B0008150F00089B
:10001000311B00087D0700082127000800000000B0
:10002000000000000000000000000000DD1F0008CC
:10003000E109000800000000D31E0008CD220008DE
:10004000CB010008CB010008CB010008CB01000860
:10005000CB010008CB010008CB010008CB01000850
:10006000CB010008CB010008E5090008CB0100081E
:10007000CB010008CB010008CB010008CB01000830
:10008000CB010008CB010008CB010008CB01000820
:10009000CB010008CB010008CB010008CB01000810
:1000A000CB01000831230008CB010008CB01000878
:1000B000CB010008CB010008CB010008CB010008F0
:1000C000CB010008CB010008CB010008CB010008E0
:1000D000CB010008CB010008CB010008CB010008D0
:1000E000CB010008CB010008CB01000800F002F8AA
:1000F00000F04FF80AA090E8000C82448344AAF173
:100100000107DA4501D100F044F8AFF2090EBAE870
:100110000F0013F0010F18BFFB1A43F0010318473B
:10012000687E0000887E00000A4410F8014B14F03D
:100130000F0508BF10F8015B240908BF10F8014B38
:100140006D1E05D010F8013B6D1E01F8013BF9D181
:10015000641E03D0641E01F8015BFBD19142E4D31D
:10016000704700000023002400250026103A28BF15
:1001700078C1FBD8520728BF30C148BF0B60704719
:10018000642900F09B80002070471FB51FBD10B58B
:1001900010BD00F053FA1146FFF7F7FF03F058FFC8
:1001A00000F071FA03B4FFF7F2FF03BC02F0D0FBDA
:1001B0000948804709480047FEE7FEE7FEE7FEE7FB
:1001C000FEE7FEE7FEE7FEE7FEE7FEE70448054937
:1001D000054A064B70470000D1220008ED000008D8
:1001E000F0010020F0070020F0030020F0030020C1
:1001F000704710B54C1084EA530404D54042C1F155
:10020000000138BF491E1B4204D55242C3F100030E
:1002100038BF5B1E00F0C6F814F0804F04D0404297
:10022000C1F1000138BF491E14F0004F04D0524202
:10023000C3F1000338BF5B1E10BD00000FB40449BA
:1002400010B503AA029800F07DF910BC5DF814FB0C
:10025000600000202DE9F0410E4604460020206297
:100260002046E168884730B3252805D0D4E901212C
:100270009047206A401CF2E7E16820460027884743
:10028000050018D0A5F14100192802D820354FF4F7
:1002900000673246294620462760FFF771FF40B1CC
:1002A000012804D0F61D26F007060836D8E7361DCB
:1002B000D6E72846DAE7206ABDE8F0812DE9F0416B
:1002C0000646002410687529314616A510D0AFF3F4
:1002D0000080002802DA404213A507E031688A074F
:1002E00001D512A502E0490704D511A5012401E0BA
:1002F000AFF3008000210A2206F1240709E0B0FBD9
:10030000F2FCB0FBF2F302FB1C00303078541846CC
:10031000491C0028F3D123462A463046BDE8F04167
:1003200000F0B7B8000000002D0000002B00000016
:100330002000000040EA010310B59B070FD1042AFA
:100340000DD310C808C9121F9C42F8D020BA19BAA0
:10035000884201D9012010BD4FF0FF3010BD1AB105
:10036000D30703D0521C07E0002010BD10F8013B5A
:1003700011F8014B1B1B07D110F8013B11F8014B81
:100380001B1B01D1921EF1D1184610BD02F0FF03D4
:1003900043EA032242EA024200F0E8B8704770479D
:1003A0007047704753EA020C00F069802DE9F04B6A
:1003B0004FF00006002B1FBFB3FA83F503FA05F4D4
:1003C00024FA05F65E4012BF1643B2FA82F502FA2D
:1003D00005F4C5F120051EBF22FA05FC44EA0C0411
:1003E000203556EA044C4FEA144418BF641C4FF001
:1003F00000084FF00009904271EB030C39D300293B
:1004000019BFB1FA81F701FA07F6B0FA80F700FADE
:1004100007F6C7F120071EBF20FA07FC46EA0C06C4
:100420002037B6FBF4FCA7EB0507103F07F01F0BC6
:10043000CBF120060CFA0BFB2CFA06F644BFB346B0
:100440000026202FA4BF5E464FF0000B5BEA060C8F
:1004500008BF4FF0010B19EB0B09ABFB027C48EB1B
:100460000608C01B06FB02CC0BFB03CC71EB0C0196
:10047000C1E70B46024641464846BDE8F08B13B53E
:100480004FF000004FF00001AFF30080BDE81C40CA
:1004900070472DE9F0470D4699469246044600F113
:1004A00024080168880604D5E06921F01001216064
:1004B00000E00120A84201DD471B00E00027A16900
:1004C0007A1902EB0900081AA0612078C00602D44C
:1004D0002046AFF30080002608E0D4E901211AF895
:1004E00006009047206A401C761C20624E45F4DBD3
:1004F0002078C0060AD52046AFF3008006E0D4E994
:10050000012130209047206A401C2062381EA7F14C
:100510000107F4DC07E0D4E9012118F80500904751
:10052000206A401C2062281EA5F10105F3DC20464C
:10053000AFF300802078000602D50220BDE8F087E6
:100540000120FBE7074B70B50D467B4400F033F804
:100550000446284600F042F810B14FF0FF3070BD5D
:10056000204670BDF33200004FF000020429C0F0B5
:10057000128010F0030C00F03780CCF1040CBCF1B9
:10058000020F18BF00F8012BA8BF20F8022BA1EB27
:100590000C0100F029B85FEAC17C24BF00F8012BF0
:1005A00000F8012B48BF00F8012B704701694A1C75
:1005B00002610878704700B58FB0CDE901310021A4
:1005C000059105497944CDE9031011466846FFF7C6
:1005D00041FE0FB000BD0000E5FFFFFF007B00F013
:1005E000800070474FF0000200B5134694469646CF
:1005F000203922BFA0E80C50A0E80C50B1F1200136
:10060000BFF4F7AF090728BFA0E80C5048BF0CC0E3
:100610005DF804EB890028BF40F8042B08BF704741
:1006200048BF20F8022B11F0804F18BF00F8012BB3
:100630007047000000487047900100207546FFF7A2
:10064000F9FFAE4605006946534620F0070085468F
:1006500018B020B5FFF7BAFDBDE820404FF0000606
:100660004FF000074FF000084FF0000B21F007019A
:10067000AC46ACE8C009ACE8C009ACE8C009ACE8DD
:10068000C0098D4670470446AFF300802046FFF74F
:1006900089FD00002DE9F0412B4800682B490860D6
:1006A000084601682A48006806F0D8F82949086019
:1006B0000846006805F09EFD0446274A274B05F0D2
:1006C0006DFC09D92348006805F094FD0446224AD0
:1006D000234B05F029FB24D8224801681D480068F7
:1006E00006F0BCF8064620480168304605F0AEFF2B
:1006F00004461E4801681E48006805F0A7FF06462C
:10070000144801681B48006805F0A0FF0746314601
:1007100005F09CFD0546214605F098FD1649086048
:1007200002E00020144908600A4800680D4908608A
:10073000084801680D48006805F088FD0B4908600D
:100740000D480068BDE8F08104000020680000202A
:10075000340000206C0000209A9999999999E93FFA
:100760009999E9BF7000002040000020740000202B
:100770003C000020380000201800002000BFFEE7E9
:1007800008B50121042001F0F1FB5C20ADF8000068
:1007900010208DF8030003208DF8020069460948F7
:1007A00000F05AFA01200849086000200749C1F802
:1007B0008C01012004490831086000200349C1F878
:1007C000980108BD00080140880121420000214233
:1007D00038B5002000906B4601227521682003F097
:1007E00091FB2CA0FFF72AFD9DF8000068280ED091
:1007F00000BF3148006800F4E06030490843001D44
:100800002D490860BFF3408F00BF00BFFEE703F033
:100810006FFD00283CD1782004F014FB10B91DA016
:10082000FFF70CFD782003F051FC10B924A0FFF76E
:1008300005FDC82004F0B8FA10B92BA0FFF7FEFCA4
:1008400002F080FC10B932A0FFF7F8FC3D4803F03D
:10085000C4FB044602F0EAFD10B93BA0FFF7EEFC32
:1008600040F2731002F016FB10B941A0FFF7E6FC4E
:10087000C82002F00BFD10B947A0FFF7DFFC04F021
:1008800005FF012004F08CF910B94CA0FFF7D6FC4D
:1008900038BD00006D70755F7365745F73656E734E
:1008A0006F7220636F6D706C657465202E2E2E2E16
:1008B0002E2E0D0A000000000CED00E00000FA05ED
:1008C0006D70755F636F6E6669677572655F666987
:1008D000666F20636F6D706C657465202E2E2E2EF2
:1008E0002E2E0D0A000000006D70755F7365745F39
:1008F00073616D706C655F7261746520636F6D709C
:100900006C657465202E2E2E2E2E2E0D0A000000F2
:10091000646D705F6C6F61645F6D6F74696F6E5F43
:100920006472697665725F6669726D77617265205F
:10093000636F6D706C657465202E2E2E2E2E2E0D1D
:100940000A00000010010020646D705F7365745F21
:100950006F7269656E746174696F6E20636F6D701C
:100960006C657465202E2E2E2E2E2E0D0A00000092
:10097000646D705F656E61626C655F6665617475FC
:10098000726520636F6D706C657465202E2E2E2E3F
:100990002E2E0D0A00000000646D705F7365745F99
:1009A0006669666F5F7261746520636F6D706C65F8
:1009B0007465202E2E2E2E2E2E0D0A006D70755F62
:1009C0007365745F646D705F737461746520636FC9
:1009D0006D706C657465202E2E2E2E2E2E0D0A0045
:1009E000704700002DE9F0410024002600252FE08B
:1009F00010211B4800F0BBF9012829D100F074FA3E
:100A00000446FA2C00DB24E0C82C03DBFA2C01DAC4
:100A100001260AE03C2C03DB5A2C01DA012704E012
:100A20000A2C02DB322C00DA0027012E0ED10D48F1
:100A3000006840000B4908600846006838440860B8
:100A4000202D03DB01200849087002E0681CC5B2B4
:100A5000CEE700BF102000F009F8BDE8F0810000EB
:100A6000000C01404C0100205001002001490860A9
:100A70007047000014040140002123498279002AB4
:100A80003AD00A46126803689A430B461A600A1D58
:100A9000126803689A430B1D1A60027911440A68B0
:100AA00003681A430A60184A0832126803689A43B6
:100AB000154B08331A601A1D126803689A43124BCB
:100AC0000C331A604279102A0ED11A1F126803687B
:100AD0001A430D4B08331A601A1D126803681A4333
:100AE000094B0C331A600DE00749427911440A683A
:100AF00003681A430A6005E0027911440A68036832
:100B00009A430A6070470000000401401B48C06916
:100B100040F001001949C8610846806940F00400AE
:100B200088611748006820F0FF00154908600846F2
:100B3000006840F0440008600020C90408854FF6B2
:100B4000FE7088850846008B40F001000883084647
:100B5000008B40F4807008830846008C08840846A7
:100B6000008C08840846008940F00300088108468C
:100B7000008840F00100088070470000001002402B
:100B8000000801402148C06940F004001F49C861C5
:100B90000846806940F0080088611D48006820F020
:100BA0007F401B4908600846006840F088400860A4
:100BB0000020184908804FF6FE70091D088015486E
:100BC0001038008840F001001249103908800846AA
:100BD000008840F4807008800E48083800880D496D
:100BE000083908800846008808800A4820380088AC
:100BF00040F003000749203908800648283800885B
:100C000040F0010003492839088070470010024075
:100C1000000C01402808004030B500228B071C0F53
:100C20000F2303FA04F20B4B8C1053F82430934338
:100C3000084C8D1044F8253023468C1053F824308E
:100C40008C07240F00FA04F42343024C8D1044F85F
:100C5000253030BD080001402DE9F0410246002555
:100C60000026002000230024002791F803C00CF088
:100C70000F0591F803C00CF0100CBCF1000F03D06D
:100C800091F802C04CEA050591F800C0BCF1000FD4
:100C900031D0146800202BE04FF0010C0CFA00F367
:100CA000B1F800C00CEA03069E4220D183004FF049
:100CB0000F0C0CFA03F7BC4305FA03FC4CEA0404DE
:100CC00091F803C0BCF1280F06D14FF0010C0CFACB
:100CD00000FCC2F814C00AE091F803C0BCF1480F50
:100CE00005D14FF0010C0CFA00FCC2F810C0401CFA
:100CF0000828D1D31460B1F800C0BCF1FF0F34DD77
:100D0000546800202EE000F1080C4FF0010808FAAA
:100D10000CF3B1F800C00CEA03069E4221D1830017
:100D20004FF00F0C0CFA03F7BC4305FA03FC4CEA36
:100D3000040491F803C0BCF1280F05D100F1080CA0
:100D400008FA0CF8C2F8148091F803C0BCF1480FFF
:100D500007D100F1080C4FF0010808FA0CF8C2F8AE
:100D60001080401C0828CED35460BDE8F0810246B4
:100D7000002093680B400BB1012000E00020704779
:100D800041617047016170472DE9F04788B0054621
:100D9000012D7DD04621D02000F040F9804645212C
:100DA000D02000F03BF908EB0027384605F0EEFBB9
:100DB00004464021D02000F031F980463F21D02068
:100DC00000F02CF908EB0027384605F0DFFB8246DF
:100DD0003C21D02000F022F980463B21D02000F0B9
:100DE0001DF908EB0027384605F0D0FB81464FF08F
:100DF0008E41204605F0F6FC05D24FF08F4120468B
:100E000005F02CFD04464FF08E41504605F0EAFCFB
:100E100005D24FF08F41504605F020FD82464FF03D
:100E20008E41484605F0DEFC05D24FF08F41484622
:100E300005F014FD8146504605F0DCF9074688466A
:100E4000484605F0D7F93A464346CDE9000101F09E
:100E5000E7FE00221D4BCDE9020104F0A1FF1C4A70
:100E60001C4BCDE9040104F007FECDE9060104F0B6
:100E700015FD0646204605F0BDF94FF06632164BCB
:100E8000CDE9060104F0F8FD074604F007FD00E097
:100E900019E0044611480078022806D184F0004782
:100EA0003946304600F0F8FA09E00C48007803288B
:100EB00005D184F000473946304601F089FC0848E6
:100EC00000680849086008B0BDE8F0870080664007
:100ED000F1D4C853FB210940666630400000002071
:100EE000940000200400002010B5002408E0601CDD
:100EF000C4B2142001F092FFFA2C01DB204610BD91
:100F000010210348FFF733FF0128F0D02046F6E711
:100F1000000C014000BFFEE73448354A0168881ADA
:100F2000914220D00FDC3348084488B3B0F5FF5F0E
:100F30002FD0A0F5BE40A038E0B1A0F53450D23893
:100F4000002850D148E0A0F2FA5000283DD0A0F58A
:100F5000C850E63858B3A0F5E850E23870B3B0F5A1
:100F6000FF7F40D10DE001202349087000201F4978
:100F7000086039E001202149087000201B49086001
:100F800032E001201E4908700020184908602BE05B
:100F900006E001201B49087000201449086023E086
:100FA0000120194908700020104908601CE0012048
:100FB0001649087000200D49086015E00120144909
:100FC00008700020094908600EE0012011490870EE
:100FD00000200649086007E001200F490870002042
:100FE0000249086000E000BF00BF70474C010020CC
:100FF0005DA2FF0003FD00FF280000202900002063
:101000002A0000202B0000202C0000202D000020B2
:101010002E0000202F0000203000002070B5054673
:101020000E46002400F01EF9284600F0E9F8641C82
:1010300000F070F9304600F0E3F8641C00F06AF943
:1010400000F010F9691CC8B200F0DAF8641C00F076
:1010500061F9002000F09CF8044600F037F92046C2
:1010600070BD000010B520210748FFF78BFE8021DE
:101070000548FFF787FE80210348FFF781FE202106
:101080000148FFF77DFE10BD0008014010B520218A
:101090000548FFF777FE80210348FFF771FE8021A6
:1010A0000148FFF76FFE10BD0008014010B5202178
:1010B0000348FFF767FE20210148FFF761FE10BDDE
:1010C0000008014010B500200E4908600E48006875
:1010D00020F00F000C4908600846006840F003004B
:1010E000086000200949C1F8A001012001F096FE26
:1010F00001200449086001F091FE00200349C1F875
:10110000AC0110BDAC0121420408014000002142A5
:101110000A48806940F0040008498861084800686E
:101120004FF20F018843064908600846006843F201
:1011300003010843024908607047000000100240A4
:101140000408014010B500200E4908600E480068F0
:1011500020F00F000C4908600846006840F00300CA
:10116000086001200949C1F8A00101F057FE0120E3
:101170000449086001F052FE00200449C1F8AC01A6
:1011800010BD0000AC0121420408014000002142D2
:1011900070B5054600241748006820F00F00154977
:1011A00008600846006840F008000860002616E065
:1011B000002011490860022001F030FE01200F4993
:1011C000C1F8AC016006040E0B488C38006808B109
:1011D000601CC4B2022001F021FE701CC6B2082EB1
:1011E000E6DB15B1FFF76EFF01E0FFF7ABFF20462E
:1011F00070BD000004080140AC0121420000214202
:1012000070B504461448006820F00F0012490860C9
:101210000846006840F00300086000200F4908609D
:10122000002516E0E0090D490C3908606006040E3F
:10123000012001F0F3FD01200949C1F8AC0101F0E2
:10124000EDFD002005490860012001F0E7FD681C64
:10125000C5B2082DE6DB70BD04080140AC01214297
:101260000000214210B51648006820F00F00144914
:1012700008600846006840F003000860012011493A
:1012800008601148D0F8200108B9002010BD0120E5
:101290000C490C31086001F0C1FD00200A49C1F879
:1012A000A00108488038006808B10020EEE701205E
:1012B00001F0B4FD002003490C3108600120E5E78E
:1012C00004080140A00121420000214210B50E484F
:1012D000006820F00F000C4908600846006840F0E4
:1012E000030008600020094908600949C1F8A0010D
:1012F000012001F093FD0120044908600449C1F870
:10130000A00101F08BFD10BD04080140AC01214299
:101310000000214210B500241548006820F00F009D
:10132000134908600846006840F008000860012082
:101330001049086001F072FD01200F49C1F8AC01AD
:1013400001F06CFD0AE0601CC4B2322C03DDFFF733
:10135000BDFF002010BD012001F060FD0548803870
:1013600000680028EFD103490C3108600120F1E743
:1013700004080140A00121420000214270B5054649
:101380000E46144631462846FFF748FE20700120DD
:1013900070BDF8B506460F4614461D466A463946E6
:1013A0003046FFF7EBFF2DB10120A0409DF8001063
:1013B000084305E00120A0409DF8001021EA00004C
:1013C000C0B200909DF800203946304600F036F853
:1013D000F8BD2DE9F8430746884614461D46089E89
:1013E0006A4641463846FFF7C9FF28B3601CFF2113
:1013F00001FA00F0C4F108012944491EFF220A4104
:10140000104300F0FF09C5F1080006FA00F0C6B26B
:10141000C4F1070006419DF8000000EA09000090B1
:101420009DF80000304300909DF80020414638466A
:1014300000F004F8BDE8F8830020FBE737B5044668
:101440000D4602AB01222946204600F001F83EBDC0
:101450002DE9F04180460D4616461F460024FFF751
:1014600001FF4046FFF7CCFEFFF754FF2846FFF789
:10147000C7FEFFF74FFF00BF06E0385DFFF7C0FE75
:10148000FFF748FF601CC4B2B442F6DBFFF71EFF53
:101490000120BDE8F08100002DE9F04105460C4631
:1014A00089480168204605F0D9F907468748016850
:1014B000384605F0CBF8064685480168304604F00A
:1014C000C5FE83490860834841688348006805F089
:1014D000C5F906467F488168304605F0BFF97F4967
:1014E00008607C48C06880F0004048607948C06867
:1014F00080F0004088607A480068C86008687349D6
:10150000096805F0A3F8064672480168304604F001
:101510009DFE70490860714948686C49096805F08A
:1015200095F806466B484168304604F08FFE6949DD
:1015300048606A4988686549096805F087F8064681
:1015400064488168304604F081FE624988606349DE
:10155000C8685E49096805F079F806465D48C168C3
:10156000304604F073FE5B49C8605948016828465C
:1015700005F074F95B4908605B48007805F01EF8D7
:10158000064654480168304605F060F8574908603F
:101590005548007805F012F806464E4881683046F6
:1015A00005F054F8524908604F48007805F006F8F5
:1015B00007464E480168384605F048F806464D484B
:1015C0000168304604F042FE4B4908600846016855
:1015D0004648006804F0A8FE48490860464801688B
:1015E0004348006804F0A0FE454908603F48006891
:1015F000444908603C48007804F0E0FF064635485E
:101600004168304605F022F83F4908603D480168CE
:101610003A48006805F01AF806462E480168304638
:1016200005F011F92B490860374801683348006814
:1016300005F00CF8064627484168304605F003F9E6
:10164000244948602F4801682D48006804F0FEFFD7
:10165000064620488168304605F0F5F81D49886047
:10166000294801682648006804F0F0FF064619483A
:10167000C168304605F0E7F81649C86019480168A6
:101680001E48006804F0E2FF064611480168304633
:1016900004F0DCFD0E490860124801681848006833
:1016A00004F0D4FF064608480168304604F0CEFD39
:1016B0000549086008460168204605F0CFF813493F
:1016C0000860BDE8F0810000B0000020A800002004
:1016D00094000020D40000209C0000207001002015
:1016E000A0000020B4000020AC000020B8000020C2
:1016F000BC000020A4000020C0000020C400002086
:10170000C8000020CC000020D0000020980000205D
:101710002DE9F04110E003F049FCFFF7FDFB8348A1
:101720000078012803D082480078012804D100F015
:1017300045FA00207F4908707E4800780028EAD1E9
:101740008EE003F08DFDFFF7E7FB7B480078012872
:1017500010D10020784908707848006804F04AFDEC
:1017600006460022764B04F0CBF8044604F096F8C7
:101770007249086073480078012810D1002071492F
:1017800008706E48006804F035FD064600226C4B78
:1017900004F046FC044604F081F8684908606A4891
:1017A0000078012810D10020674908706748006858
:1017B00004F020FD0646664A664B04F0A1F8044694
:1017C00004F06CF86149086063480078012810D182
:1017D0000020614908705D48006804F00BFD064672
:1017E0005B4A5C4B04F01CFC044604F057F8574974
:1017F00008605A480078012810D100205749087025
:101800005748006804F0F6FC064600224C4B04F0F2
:1018100077F8044604F042F85149086051480078CE
:10182000012810D100204F4908704D48006804F08D
:10183000E1FC06460022424B04F0F2FB044604F0B1
:101840002DF8474908603B480078012803D0384804
:101850000078012804D100F0B1F900203349087064
:101860003248007800287FF46CAF58E003F02CFE7B
:10187000FFF752FB30480078012810D100202E4994
:1018800008703948006804F0B5FC0646374A384B02
:1018900004F036F8044604F001F83349086029489A
:1018A0000078012810D10020264908702E480068D1
:1018B00004F0A0FC06462D4A2D4B04F0B1FB044673
:1018C00003F0ECFF284908602448007801280AD179
:1018D0000020224908704FF07E512648006804F02D
:1018E000B5FC244908601F48007801280AD100206F
:1018F0001C4908704FF07E511E48006804F0AEFF8E
:101900001C4908600B480078012803D0074800787C
:10191000012804D100F052F900200549087004485C
:1019200000780028A2D1BDE8F08100002900002045
:101930002A000020280000202B0000203800002072
:101940000000E03F2E0000202C000020340000208A
:101950009A9999999999B93F2F0000202D0000205C
:101960004000002030000020440000207B14AE47DF
:10197000E17A843F4C00002010B5022000F010F8FE
:10198000032000F021F8002000F014F8002000F0FF
:1019900037F8002000F02BF8002000F01FF810BDF1
:1019A00038B50446032302226B21D0200094FFF7B0
:1019B00010FD38BD38B50446022304221C21D02076
:1019C0000094FFF706FD38BD38B504460223042213
:1019D0001B21D0200094FFF7FCFC38BD10B5044655
:1019E000234601223721D020FFF7D3FC10BD10B5CC
:1019F0000446234605226A21D020FFF7CAFC10BD09
:101A000010B50446234606226B21D020FFF7C1FC07
:101A100010BD000000B5002015490861C860142001
:101A2000486100208861C8610846006840F00100F4
:101A30000860084640680F4908400D49486008465C
:101A400000680D4908400A4908600846006820F40B
:101A5000802008600846406820F4FE0048600020AE
:101A6000886000214FF0006000F058F800BD0000D1
:101A7000001002400000FFF8FFFFF6FE2DE9F041E4
:101A80000746884614461D46284600F033F8C5F13F
:101A9000040007FA00F60F20284100EA0800064378
:101AA00006F00F06E21704EBD2625211920002F127
:101AB000E022D2F800212146E31704EBD3635B1147
:101AC000A4EB431C012303FA0CF31A432046E3174B
:101AD00004EBD3635B119B0003F1E023C3F8002107
:101AE0000348005D40EA061001490855BDE8F08151
:101AF00000E400E00146072323EA01021202054B3D
:101B000018684FF6FF031840034B18431043014B6E
:101B1000186070470CED00E00000FA05024A0A4028
:101B20000243024B1A60704780FFFF1F08ED00E080
:101B300000BFFEE77047000070B5002100230F22B0
:101B4000C47804B3154C246804F4E064C4F5E0647C
:101B5000210AC1F10403CA40447804FA03F18478ED
:101B60001440214309010E4C0678A155047804F075
:101B70001F050124AC4005786D11AD0005F1E0258D
:101B8000C5F8004109E0047804F01F050124AC40C9
:101B9000044D0678761145F8264070BD0CED00E046
:101BA00000E400E080E100E002490143024A1160E4
:101BB000704700000000FA050CED00E070B500244D
:101BC00018E004F1B000002100F077F90021084688
:101BD00000F073F90021102000F06FF9002505E0F6
:101BE0000121002000F069F9681CC5B2802DF7DBE7
:101BF000601CC4B2082CE4DB70BD10B500218D2040
:101C000000F05BF90021142000F057F90021AF200B
:101C100000F053F910BD000008B50121042000F0C8
:101C2000A5F9A020ADF8000010208DF803000320D6
:101C30008DF8020069463C48FFF70EF8A0213A48AB
:101C4000FFF7A0F84FF4487001F0CAF80021AE2069
:101C500000F033F90021084600F02FF90021102090
:101C600000F02BF90021402000F027F90021B020DE
:101C700000F023F90021812000F01FF90021FF204E
:101C800000F01BF90021A12000F017F90021A62087
:101C900000F013F90021A82000F00FF900213F20E7
:101CA00000F00BF90021C82000F007F90021D32033
:101CB00000F003F90021084600F0FFF80021D520CC
:101CC00000F0FBF80021802000F0F7F80021D82078
:101CD00000F0F3F80021052000F0EFF80021D920F2
:101CE00000F0EBF80021F12000F0E7F80021DA2005
:101CF00000F0E3F80021122000F0DFF80021DB20E3
:101D000000F0DBF80021302000F0D7F800218D2012
:101D100000F0D3F80021142000F0CFF80021AF200C
:101D200000F0CBF808BD00000008014070B5044683
:101D30000D4605F1B000002100F0BFF8102141EA86
:101D40001410002100F0B9F804F00F00002100F099
:101D5000B4F870BD2DE9F04707460E469046994607
:101D600000250024A8F12000C5B27F2F02DD002746
:101D7000B01CC6B2B9F1100F24D131463846FFF776
:101D8000D5FF002408E004EB0511194A505C01213D
:101D900000F093F8601CC4B2082CF4DB701CC1B2D4
:101DA0003846FFF7C3FF002409E004EB05110831B2
:101DB0000F4A505C012100F080F8601CC4B2082C6E
:101DC000F3DB12E031463846FFF7B0FF00240AE0AB
:101DD00005EB4501074A02EB4101085D012100F0D6
:101DE0006CF8601CC4B2062CF2DBBDE8F087000082
:101DF000A67800087E7600082DE9FF5F0746914629
:101E00001E460E9D4FF0000A002435E0301B401E98
:101E1000C1B20A2003F0BEF8B9FBF0F00A21B0FB12
:101E2000F1F201FB1208BAF1000F14D1701EA042AA
:101E300011DDB8F1000F0CD1AB4605EBDB71491099
:101E400001FB0471C8B22B4620220199FFF782FFE3
:101E500010E04FF0010AAB4605EBDB71491001FBC6
:101E60000471C8B208F13001CAB22B460199FFF7DC
:101E700071FF00BF601CC4B2B442C7DBBDE8FF9F66
:101E80002DE9F04104460F461546984600260FE01E
:101E9000AA5D434639462046FFF75CFF04F108007F
:101EA000C4B2782C02DD0024B81CC7B2701CC6B2C4
:101EB000A85D0028ECD1BDE8F08170B504460D4660
:101EC0001DB1E0B200F06EFC02E0E0B200F054FCA4
:101ED00070BD704770B5064614480068144909681B
:101EE0000844144909680844124908600846006813
:101EF00004F04CFB10490860084600680F49086070
:101F0000084601680E48006804F0A0FB04460A4831
:101F100001680C48006804F099FB0546214604F06E
:101F200095F9094908600846006870BD1000002056
:101F30000C00002014000020840000208C000020F1
:101F400054000020500000202000002029B1064A43
:101F5000D2690243044BDA6104E0034AD269824346
:101F6000014BDA61704700000010024029B1064AB7
:101F700092690243044B9A6104E0034A92698243E6
:101F8000014B9A617047000000100240014602298F
:101F900004D003290BD0042917D10FE04FF0804261
:101FA000928C10B200224FF080439A840FE0094ACD
:101FB000128810B20022074B1A8008E0064A1288E5
:101FC00010B20022044B1A8001E0002000BF00BFC5
:101FD000704700002404004024080040704710B5FA
:101FE00000F002F810BD00000CB500200190009038
:101FF0003348006840F480303149086000BF304801
:10200000006800F4003000900198401C0190009896
:1020100018B90198B0F5A06FF1D12948006800F413
:10202000003010B10120009001E0002000900098E5
:10203000012843D12348006840F01000214908607E
:102040000846006820F0030008600846006840F079
:10205000020008601A48406819494860084640680C
:1020600048600846406840F4806048600846406820
:1020700020F47C1048600846406840F4E81048604E
:102080000846006840F08070086000BF0C48006897
:1020900000F000700028F9D00948406820F00300E3
:1020A000074948600846406840F00200486000BFA9
:1020B0000348406800F00C000828F9D10CBD00006E
:1020C000001002400020024010B533493348006838
:1020D00004F088FB02D830483049086030492F4866
:1020E000006804F07FFA02D82D482C4908600021CE
:1020F0002A48006804F076FB20D8002029490860AF
:1021000001202949C1F88C010020264908310860C6
:1021100001202549C1F898012048006804F0FAF927
:10212000044604F2762081B2204800F074FA04F2EA
:10213000672081B21D4800F070FA2BE0002117489B
:10214000006804F04FFA25D21448006880F000407F
:102150001249086001201349086000201249C1F8A3
:102160008C0101200F490831086000200E49C1F898
:1021700098010A48006804F0CDF9044604F276207C
:1021800081B20A4800F047FA04F2672081B207489A
:1021900000F043FA10BD00000080864324000020B8
:1021A000008086C3880121420000214200040040D3
:1021B0002DE9F04104461A4909681A4A126888183C
:1021C00004F0E4F90546214604F03DFB1649086099
:1021D000084601681548006804F038FA07461448B4
:1021E00001681148006804F039FB80461148016815
:1021F000404604F02BFA0646394604F027F8054617
:102200000D480168284604F021F80B49086006488B
:1022100000680749086008480068BDE8F0810000D0
:10222000100000200C000020780000204800002052
:102230007C000020440000201C00002030B5044633
:102240000025FFF7E7FB1F48006840F480301D4978
:10225000086000BF1B480068400C0028FAD04FF40B
:10226000806018494860A01EC4B20846406840EA31
:10227000844048600846406840F480304860124816
:10228000006840F03200104908600E48006840F0D5
:1022900080700C49086000BF0A480068400E0028A2
:1022A000FAD00848406840F002000649486005E05E
:1022B00004484068C0F3870505F00305022DF7D1F7
:1022C00030BD0000001002400020024070470000B6
:1022D00010B51348006840F0010011490860084635
:1022E0004068104908400E494860084600680E4999
:1022F00008400B4908600846006820F48020086008
:102300000846406820F4FE0048604FF41F008860D3
:10231000FFF765FE4FF000600449086010BD000043
:10232000001002400000FFF8FFFFF6FE08ED00E09D
:102330002DE9F0412248008800F0010000283CD03F
:102340001F48008820F001001D4908801D480078C2
:1023500008B9012000E000201A49087008460078FA
:10236000012806D118480078FEF70EFD0020BDE8D0
:10237000F0810220FFF70AFE144908600420FFF7ED
:1023800005FE1349086010480078FEF7FDFC0020A8
:10239000FFF7A0FD05460020FFF70AFF0646FEF7FF
:1023A00079F90746314603F051FF0446294603F008
:1023B0004DFF08490860FFF787FE0020D7E70000BF
:1023C000102C0140640000200000002010000020BC
:1023D0000C0000202400002008B501210220FFF796
:1023E000B5FD01210820FFF7C1FD0320ADF8000075
:1023F00018208DF8030003208DF80200694602487A
:10240000FEF72AFC08BD0000000C014030B587B083
:1024100005460C4640F28330ADF814000320ADF8B9
:1024200010000020ADF81600ADF8120004A9154800
:1024300000F0F6F86020ADF800000120ADF80200D1
:10244000ADF8065069460F4800F040F808210D48E5
:1024500000F08CF80120ADF80200ADF806406946A6
:10246000084800F08DF80821064800F0C7F801215F
:10247000044800F013F80121024800F01BF807B0EF
:1024800030BD00000004004070B504460D46FFF763
:10249000A3FF29882088FFF7B9FF70BD21B102880A
:1024A00042F08002028004E002884FF67F731A40F7
:1024B0000280704721B1028842F00102028004E0EC
:1024C00002884FF6FE731A400280704770B50024F0
:1024D00000220023058C4FF6FF6635400584028CF0
:1024E0008388848B4FF68F752C404FF6FC752C40FB
:1024F0000D882C434FF6FF552A400D894FF6FF7685
:1025000006EA05252A434D8806EA05252A43154D86
:10251000A84202D0144DA8421DD14FF2FF752A40A7
:102520004D894FF6FF7606EA05252A434FF6FF351B
:102530002A408D8806EA05252A434EF6FF752B4072
:102540004DF6FF752B408D8906EA05152B43CD8985
:1025500006EA05152B4383808483CD888587028412
:1025600070BD0000002C0140003401400A460021EB
:10257000818B4FF6F7731940114381837047000038
:1025800070B5002200230024058C4EF6FF763540FE
:102590000584038C8488828B48F6FF752A404FF6A9
:1025A000FF452A400D884FF6FF7606EA05252A43A7
:1025B0004DF6FF752B400D8906EA05352B434D88F6
:1025C00006EA05352B430B4DA84202D00A4DA8421E
:1025D00008D14BF6FF752C408D894FF6FF7606EA41
:1025E00085152C4384808283CD88A0F840500384D5
:1025F00070BD0000002C0140003401400A4600215B
:10260000818B4FF2FF7319404FF6FF7303EA0223E9
:1026100019438183704781877047A0F84010704745
:10262000002202881D4B98420ED01D4B98420BD0C1
:10263000B0F1804F08D01B4B984205D01A4B9842FE
:1026400002D01A4B984204D14FF68F731A404B8830
:102650001A43174B984207D0164B984204D04FF6B6
:10266000FF431A40CB881A4302808B8883850B88EE
:1026700003850A4B98420BD0094B984208D00E4B69
:10268000984205D00D4B984202D00D4B984201D193
:102690000B7A03860123838270470000002C0140DF
:1026A000003401400004004000080040000C0040DD
:1026B0000010004000140040004001400044014070
:1026C0000048014070B505460C461348806940F447
:1026D00000601149886111480580001F04800F487F
:1026E0002038008840F001000C4920390880084655
:1026F000008840F04000088008482C38008840F0EE
:10270000010006492C3908800223192203210120E7
:10271000FFF7B4F970BD0000001002402C2C0140FE
:1027200000BFFEE72DE9F04105462C462021114867
:10273000FEF726FB002619E0274607F08007802FCA
:1027400004D180210B48FEF71DFB03E080210948DE
:10275000FEF716FB6006040E20210648FEF712FB6A
:1027600020210448FEF70CFB701CC6B2082EE3DBE8
:10277000BDE8F0810008014010B50446FEF772FC88
:102780007820FFF7CFFFFEF791FC0020FFF7CAFF8C
:10279000FEF78CFC2046FFF7C5FFFEF787FCFEF72F
:1027A00075FC10BD10B50446FEF75CFC7820FFF701
:1027B000B9FFFEF77BFC4020FFF7B4FFFEF776FC85
:1027C0002046FFF7AFFFFEF771FCFEF75FFC10BD80
:1027D0002DE9F04F8BB083468A46504603F00AFD40
:1027E00080461C4A1C4B03F0DBFACDE902011B4872
:1027F000006803F0FFFCCDE90001DDE9022303F0EE
:102800007FF804460D46164801684FF07E5004F0EC
:1028100025F8804603F0EEFC064622462B4603F0E0
:10282000BFFACDE906010E480168584603F00EFFD5
:10283000044603F0DFFCCDE90401DDE9062303F0E3
:102840005FF8CDE9080103F029F8044908600BB0EE
:10285000BDE8F08F7B14AE47E17A743F940000200E
:1028600090000020490050EAC12018BF04204A0D02
:1028700018BF40F0010040F2FF72B2EB515F08BF99
:1028800040F00200012808BF052070472DE9F04103
:102890004F1E00EBC7010446D1E9000115461E4654
:1028A00037F006020DD02A46334603F079FA7F1E30
:1028B00004EBC703D3E9002303F022F837F0060244
:1028C000F1D1022F25D0042F13D0062F18BFBDE859
:1028D000F0812A46334603F063FAD4E90A2303F071
:1028E0000FF82A46334603F05BFAD4E9082303F0D5
:1028F00007F82A46334603F053FAD4E9062302F0D8
:10290000FFFF2A46334603F04BFAD4E9042302F0D2
:10291000F7FF2A46334603F043FAD4E9022302F0D4
:10292000EFFF2A46334603F03BFAD4E90023BDE823
:10293000F04102F0E5BF012204F037B802F0E0BF39
:10294000024A0020110704F030B8000001FDFFFF2B
:10295000014600BF704700002DE9FE4F06460F46B6
:102960000025684600F07AFF002442E056F8240073
:1029700057F82410A0EB010ABAF1000F01DB514611
:1029800001E0CAF10001084603F000FE83464FF063
:102990008F4103F0C9FC80465DF82400002103F05C
:1029A00085FD16D05DF82410404603F0BDFC82463C
:1029B0004FF07E5103F052FF814629F0004A0F4844
:1029C000416A504603F00EFF12D20120A040054399
:1029D0000EE00A48C169404603F004FE05D30748EB
:1029E000016A404603F0FEFE02D20120A0400543EA
:1029F000641C032CBADB2846BDE8FE8F606A000821
:102A00002DE9F84F04460D4621F00040009173492E
:102A1000814211DC7249884201DC06D12CB120468A
:102A20002946BDE8F84FFFF786BF6E48002DCCBFA2
:102A30006D496E49BDE8F88F6D49814211DD6D49E0
:102A40008142D8BF4FF0FF366DDD20462946FFF7A3
:102A500009FF042808BFFFF773FF20462946BDE899
:102A6000F88F6549654F25F00045814233DD6449A3
:102A7000814219DD002632464FF080432046294628
:102A800002F03EFF80468A4601222046294603F096
:102A90008CFF00223B4603F0C3FA4246534602F045
:102AA000EBFF04460D463EE001260022BA463B46B7
:102AB0002046294602F024FF80460F460022534656
:102AC0002046294603F0ACFA42463B4602F0D4FFCA
:102AD00004460D4627E04B4981421BDDDFF828A163
:102AE0000226002253462046294603F059F90022C7
:102AF0003B4602F005FF80460F4600225346204623
:102B0000294603F08DFA42463B4602F0B5FF0446E3
:102B10000D4608E0032622462B4600203B4902F0E2
:102B2000ABFF04460D4622462B461046194603F0DD
:102B300037F98B46824602460B4603F031F90746C9
:102B40000246334888460B4606217844FFF79EFE2E
:102B500052465B4603F024F982462E488B463A469D
:102B6000434605217844FFF791FE3A46434603F079
:102B700017F902460B46002E504659460CDA02F071
:102B8000BFFE22462B4603F00BF901B022462B462E
:102B9000BDE8F04F03F038BA02F0B2FE22462B46F1
:102BA00003F0FEF81C4A7A4402EBC603D3E9002383
:102BB00003F036FA22462B4603F032FA174A7A44DB
:102BC00002EBC603D3E9002303F01EFA009A002AA1
:102BD000B8BF81F00041BDE8F88F0000000010444C
:102BE0000000F07F182D4454FB21F93FFB21F9BF71
:102BF0000000DC3F0000203E0000F33F0000F03FFB
:102C00000000E63F008003400000F83F0000F0BFF6
:102C1000B2530000705300000E530000D652000063
:102C20002DE9F04D9446CCF1000423F000464CEA27
:102C30000404524F46EAD4749A46884621F0004272
:102C4000BC4206D8454240EA050442EAD474BC427C
:102C500004D9BDE8F04D6246FFF770BEAAF14055B9
:102C6000A5F17F6555EA0C040BD0022404EAAA748E
:102C7000434DDFF810E144EAD87452EA000B04D067
:102C80000CE0BDE8F04DFFF7BBBE002C14BF012CDB
:102C9000BDE8F08D022C30D0032C32D056EA0C0B5C
:102CA0000AD0BE4220D1BA4209D126F0804622F095
:102CB00080423346114617E000291ADB25E0DFF891
:102CC000C8B0FB44002C04BFDBE90001BDE8F08D77
:102CD000012C02BFDBE9000181F00041BDE8F08D6D
:102CE000022C0AD0032C0CD0BA4212D1B8F1000F3A
:102CF0000BDA23482549BDE8F08D28462449BDE874
:102D0000F08D28467146BDE8F08D1D482149BDE88B
:102D1000F08D921B12153C2AC4BF19481D490EDCC8
:102D2000BAF1000FBEBF12F13C0F0020014606DBD6
:102D3000624602F0A1FE21F00041FFF761FE002C87
:102D400008BFBDE8F08D012C04BF81F00041BDE853
:102D5000F08D114A114B022C07D003F061F92A467D
:102D6000BDE8F04D0A4B03F05BB903F059F92A4670
:102D7000BDE8F04D064B03F047B900000000F07FBE
:102D8000182D4454FB2109C06A520000FB21F9BFF1
:102D9000FB210940FB21F93F075C143326A6A13C27
:102DA0004FF0E021096921F004014FF0E0221161A8
:102DB000C21700EB5272C2F3C702074B1A701946D2
:102DC000097801EB4102C2EBC1114FF6FF7202EA32
:102DD000C101024A118070475C0000205E000020A3
:102DE00001460D4A12884A434FF0E0235A610022FF
:102DF0009A6101221A6100BF4FF0E022106900F0D1
:102E000001021AB100F48032002AF5D000224FF0FE
:102E1000E0231A619A6170475E00002001460D4A66
:102E200012784A434FF0E0235A6100229A6101224E
:102E30001A6100BF4FF0E022106900F001021AB1E0
:102E400000F48032002AF5D000224FF0E0231A610E
:102E50009A6170475C00002038B5044664B12020B8
:102E60008DF8000028208DF8010030208DF8020038
:102E700038208DF8030004E0A32204216846FDF702
:102E800085FA6A46042140F69E2002F043F801F0DC
:102E900033FC38BD3EB5044602208DF80000CA2040
:102EA0008DF80100E3208DF8020009208DF8030061
:102EB0006A460421682002F02DF8A3208DF8000056
:102EC00004F0400048B1C0208DF80100C8208DF802
:102ED0000200C2208DF8030006E0A3208DF8010057
:102EE0008DF802008DF8030004F4C07048B1C420CE
:102EF0008DF80400CC208DF80500C6208DF8060062
:102F000006E0A3208DF804008DF805008DF806007A
:102F1000A3208DF807008DF808008DF809006A4697
:102F20000A2140F6A72001F0F5FF04F0030018B1D4
:102F300020208DF8000002E0D8208DF800006A46BD
:102F4000012140F6B62001F0E5FF04F0200018B1A1
:102F5000012000F0ADF802E0002000F0A9F804F430
:102F6000C07008B304F4807060B1B2208DF8000026
:102F70008B208DF80100B6208DF802009B208DF883
:102F800003000BE0B0208DF8000080208DF80100D8
:102F9000B4208DF8020090208DF803006A460421C9
:102FA00040F6A22001F0B6FF04F0010020B3F820A3
:102FB0008DF800006A4601214FF40B6001F0AAFF72
:102FC000FA21072000F046FB072000F00DFB01204E
:102FD00000F02DFB642000F00DFC4FF4FA7000F0BF
:102FE0001CFCC821304800F0BDFA282000F0D6FAB9
:102FF0000A2000F0E6FA08E0D8208DF800006A46C2
:1030000001214FF40B6001F085FF04F0020018B1BC
:10301000D9208DF8000002E0D8208DF800006A4623
:10302000012140F23D7001F075FF04F0040018B179
:10303000012000F069F802E0002000F065F804F0DB
:10304000100018B10120FFF707FF02E00020FFF792
:1030500003FF44F008001549488101F04DFB0020B2
:103060001249887304F0400018B10846807B801D27
:10307000887304F4C07020B10C48807B801D0B491C
:10308000887304F0140020B10848807B1030074991
:10309000887304F0030020B10448807B001D0349BD
:1030A000887300203EBD000009E3CA0280010020B1
:1030B0003EB504466CB10EA1D1E900208968CDE986
:1030C000002002916A4609214FF4976001F022FF27
:1030D0003EBD0AA2D2E900109268CDE9010200913A
:1030E0006A4609214FF4976001F014FFF0E70000F1
:1030F000B8AAB38DB4980D355D000000B8AAAAAA8D
:10310000B088C3C5C700000038B5044664B1C0200C
:103110008DF80000C2208DF80100C4208DF8020057
:10312000C6208DF8030004E08B2204216846FDF7D9
:103130002DF96A46042140F6982001F0EBFE01F0DB
:10314000DBFA38BD10B5C8234FF48062024940F65F
:10315000F63001F0C5F910BD886A000870B588B076
:10316000064601A801F010F8BDF804000021C903CB
:1031700041EA5045C4034448007A00F0030056F881
:10318000200005904048007A00F0040010B1059836
:10319000404205903C48007AC0F3C10056F8200038
:1031A00006903948007A00F0200010B1069840429D
:1031B00006903548007AC0F3811056F82000079039
:1031C0003148008900F4807010B1079840420790A0
:1031D0000598C117A0FB042301FB043100FB051077
:1031E000810041EA927005900698C117A0FB042364
:1031F00001FB043100FB0510810041EA927006904A
:103200000798C117A0FB042301FB043100FB051044
:10321000810041EA927007900598000E8DF8080031
:103220000598000C8DF809000598000A8DF80A0031
:103230000598C0B28DF80B000698000E8DF80C00B2
:103240000698000C8DF80D000698000A8DF80E0007
:103250000698C0B28DF80F000798000E8DF8100088
:103260000798000C8DF811000798000A8DF81200DD
:103270000798C0B28DF8130002AA0C214FF42570F4
:1032800001F048FE08B070BD8001002030B585B067
:10329000044616A207CA02AB07C3C82C03DD4FF0D1
:1032A000FF3005B030BDC82090FBF4F0401E85B261
:1032B000280A8DF80000E8B28DF801006A46022164
:1032C00040F2162001F026FE10B14FF0FF30E8E783
:1032D00002AA0C2140F6C12001F01CFE10B14FF0F3
:1032E000FF30DEE7044884810020DAE7FEF2ABC459
:1032F000AAF1DFDFBBAFDFDF800100201FB504468E
:103300004848007A00F0030054F820000190454836
:10331000007A00F0040010B1019840420190414849
:10332000007AC0F3C10054F8200002903D48007AB2
:1033300000F0200010B10298404202903948007A13
:10334000C0F3811054F8200003903648008900F43F
:10335000807010B10398404203903349019880FB7C
:103360000101800F40EA810001902F49029880FB03
:103370000110820042EA917002902B49039880FB71
:103380000110820042EA917003900198000E8DF8BE
:1033900000000198000C8DF801000198000A8DF8DA
:1033A00002000198C0B28DF803006A4604214FF470
:1033B000747001F0AFFD18B14FF0FF3004B010BDD4
:1033C0000298000E8DF800000298000C8DF80100A4
:1033D0000298000A8DF802000298C0B28DF803002E
:1033E0006A4604214FF4757001F094FD10B14FF05E
:1033F000FF30E3E70398000E8DF800000398000CFF
:103400008DF801000398000A8DF802000398C0B2FD
:103410008DF803006A4604214FF4767001F07AFDBE
:10342000CCE700008001002009E3CA0210B586B095
:10343000044647A00068039046A00068029046A09A
:103440000068019045A00068009004F0030003A903
:10345000085C8DF8140003A8C4F3C101405C8DF82A
:10346000150003A8C4F38111405C8DF8160004F028
:10347000030002A9085C8DF8100002A8C4F3C10182
:10348000405C8DF8110002A8C4F38111405C8DF8F6
:10349000120005AA032140F2264001F03BFD18B1BD
:1034A0004FF0FF3006B010BD04AA032140F22A40BD
:1034B00001F030FD10B14FF0FF30F3E701980590B7
:1034C0000098049004F0040058B19DF8140040F0F6
:1034D00001008DF814009DF8100040F001008DF8F7
:1034E000100004F0200058B19DF8150040F00100D4
:1034F0008DF815009DF8110040F001008DF81100C5
:1035000004F4807058B19DF8160040F001008DF869
:1035100016009DF8120040F001008DF8120005AA77
:1035200003214FF4886001F0F5FC10B14FF0FF303B
:10353000B8E704AA032140F2314001F0EBFC10B1DE
:103540004FF0FF30AEE7064804810020AAE70000F4
:103550004CCD6C000CC92C00365676002646660011
:1035600080010020F8B505460E464FF47A7095FBB1
:10357000F0F000FB06F4200E8DF80000200C8DF812
:103580000100200A8DF80200E0B28DF803006A46BF
:1035900004214FF4AE7001F0BDFCF8BD38B504460F
:1035A000052094FBF0F084B220128DF80000E0B208
:1035B0008DF801006A4602214FF4AD7001F0AAFCBB
:1035C00038BD38B50446052094FBF0F084B22012D3
:1035D0008DF80000E0B28DF801006A4602214FF438
:1035E000AC7001F097FC38BD38B50446002000905F
:1035F00004F0010020B19DF8000040F03000009080
:1036000004F0020020B19DF8000040F00C00009092
:1036100004F0040020B19DF8000040F00300009089
:103620006A4601214FF4A47001F074FC38BD38B52E
:103630000446012C01DA012402E0042C00DD0424FC
:10364000601EC0B200906A46012140F24F1001F0A6
:1036500061FC38BD2DE9FC4706460F4606F0070021
:1036600010B1B7F5C86F03DD4FF0FF30BDE8FC8740
:10367000384602F0A3FF8146594902F055FE8046C4
:10368000684600F05BFD9DF80000022806D0042883
:1036900016D0082826D0102848D135E04FF08D41AB
:1036A000404602F0D3FF814602F050FF84B24D49FC
:1036B000404602F0CBFF814602F048FF85B238E079
:1036C0004FF08C41404602F0C1FF814602F03EFFC0
:1036D00084B24549404602F0B9FF814602F036FF08
:1036E00085B226E04FF08B41404602F0AFFF8146A5
:1036F00002F02CFF84B23D49404602F0A7FF81460C
:1037000002F024FF85B214E04FF08A41404602F0F7
:103710009DFF814602F01AFF84B23549404602F00F
:1037200095FF814602F012FF85B202E04FF0FF30B4
:103730009CE700BF20128DF80400E0B28DF8050070
:1037400028128DF80600E8B28DF8070006F0010097
:10375000A0B101AA02214FF4EA7001F0DBFB10B125
:103760004FF0FF3082E70DF1060202214FF4927014
:1037700001F0D0FB10B14FF0FF3077E706F0020008
:10378000A0B101AA02214FF4EC7001F0C3FB10B10B
:103790004FF0FF306AE70DF1060202214FF49470FA
:1037A00001F0B8FB10B14FF0FF305FE706F0040006
:1037B000A0B101AA02214FF4EE7001F0ABFB10B1F1
:1037C0004FF0FF3052E70DF1060202214FF49670E0
:1037D00001F0A0FB10B14FF0FF3047E7002045E7B4
:1037E00000004843000040460000C045000040453E
:1037F0000000C04438B50446052094FBF0F085B2C3
:1038000028128DF80000E8B28DF801006A46022106
:103810004FF4EF7001F07EFB38BD38B5044605204B
:1038200094FBF0F085B228128DF80000E8B28DF814
:1038300001006A4602214FF4ED7001F06BFB38BDC8
:1038400000BF054A128802F04002002AF9D0C2B235
:10385000014B1B1D1A807047003801407CB505469E
:1038600028494968087801AB04220D2100F04AFB81
:1038700008B107207CBD9DF80700C0F301109DF83A
:10388000041001F0E00140EAE1008DF800009DF82D
:103890000700C0F381009DF8051001F0E00140EA47
:1038A000E1008DF801009DF8070000F003009DF88D
:1038B000061001F0E00140EAE1008DF8020000246A
:1038C0001CE01DF8040018B9002045F8240013E09E
:1038D0000D4845F8240006E055F824000B4902F095
:1038E000B5FE45F824001DF80400401EC0B20DF8D6
:1038F00004000028F0D100BF601CC4B2032CE0DB40
:103900000020B7E7200100207B14AE3E1D5A843F03
:103910002DE9F04F87B005460C46914601208DF801
:10392000100000208DF81100FE4A1268917CFD4ABB
:103930005268107804AB022200F01FFB20B14FF058
:10394000FF3007B0BDE8F08FC820FFF749FA00202C
:103950008DF81000F34A1268D17BF24A5268107851
:1039600004AB012200F009FB10B14FF0FF30E8E793
:10397000EC4A12685179EB4A5268107804AB012284
:1039800000F0FBFA10B14FF0FF30DAE7E54A1268B9
:10399000917CE44A5268107804AB012200F0EDFA01
:1039A00010B14FF0FF30CCE7DE4A1268D17DDD4A1E
:1039B0005268107804AB012200F0DFFA10B14FF02A
:1039C000FF30BEE7D74A12681179D64A526810789C
:1039D00004AB012200F0D1FA10B14FF0FF30B0E794
:1039E0000C208DF81000CF4A12681179CD4A526828
:1039F000107804AB012200F0C0FA10B14FF0FF3094
:103A00009FE70F20FFF7ECF9C648806A407A8DF8EF
:103A10001000C44A12689178C24A5268107804AB08
:103A2000012200F0AAFA10B14FF0FF3089E7BD483B
:103A3000806A007A8DF81000BA4A12685178B94A43
:103A40005268107804AB012200F097FA10B14FF0E1
:103A5000FF3076E7B9F1000F07D0B248806A807A6C
:103A600040F0E0008DF8100004E0AE48806A807AF3
:103A70008DF81000AB4A12689179AA4A5268107802
:103A800004AB012200F079FA10B14FF0FF3058E793
:103A9000B9F1000F07D0A348806AC07A40F0E00077
:103AA0008DF8100003E0A048C07A8DF810009D4A00
:103AB0001268D1799B4A5268107804AB012200F059
:103AC0005CFA10B14FF0FF303BE7B9F1000F02D0C4
:103AD000C820FFF785F940208DF81000914A126840
:103AE0001179904A5268107804AB012200F045FA2F
:103AF00010B14FF0FF3024E778208DF81000894A8C
:103B000012685179874A5268107804AB012200F09C
:103B100034FA10B14FF0FF3013E783498889FFF77B
:103B20005FF900208DF810007E4A126851797D4AB5
:103B30005268107804AB012200F01FFA10B14FF068
:103B4000FF30FEE6774A1268917A764A526810781A
:103B500004AB022200F0D6F910B14FF0FF30F0E6CE
:103B60009DF811009DF8101040EA012B0C209BFBE2
:103B7000F0F0C6B20020A86068602860A0606060B5
:103B80002060824665E0674A1268D17A654A5268C9
:103B9000107804AB0C2200F0B5F910B14FF0FF30F3
:103BA000CFE69DF811009DF8101040EA012000B208
:103BB000ADF808009DF813009DF8121040EA0120AE
:103BC00000B2ADF80A009DF815009DF8141040EA07
:103BD000012000B2ADF80C00BDF9081020680844BF
:103BE0002060BDF90A10606808446060BDF90C10DF
:103BF000A0680844A0609DF817009DF8161040EAE0
:103C0000012000B2ADF800009DF819009DF81810D1
:103C100040EA012000B2ADF802009DF81B009DF8BB
:103C20001A1040EA012000B2ADF80400BDF90010FE
:103C3000286808442860BDF9021068680844686074
:103C4000BDF90410A8680844A8600AF1010000F05A
:103C5000FF0AB24597DB3448D0F800C02868C11786
:103C6000090441EA10410704624600233846FCF784
:103C7000C0FA32460023CDE90201FCF7BAFA286007
:103C80002948D0F800C06868C117090441EA10410A
:103C90000704624600233846FCF7ABFA324600239D
:103CA000CDE90201FCF7A5FA68601F48D0F800C012
:103CB000A868C117090441EA1041070462460023BD
:103CC0003846FCF796FA32460023CDE90201FCF7AC
:103CD00090FAA8601448D0F804C02168C8170004FE
:103CE00040EA11480F046246002338464146FCF77B
:103CF00080FA32460023CDE90201FCF77AFA20600F
:103D00000948D0F804C06068C117090441EA1041AD
:103D10000704624600233846FCF76BFA324600235C
:103D200004E0000020010020606A0008CDE90201E3
:103D3000FCF75FFA60601148D0F804C0A068C117B2
:103D4000090441EA10410704624600233846FCF7A3
:103D500050FA32460023CDE90201FCF74AFAA0608E
:103D6000A068002804DDA068A0F58030A06003E012
:103D7000A06800F58030A0600020E2E5606A0008DD
:103D80002DE9FC5F06460F4600253D494968087845
:103D900001AB03220D2100F0B5F810B10720BDE8FA
:103DA000FC9F9DF8040000F01F008DF804009DF8B2
:103DB000050000F01F008DF805009DF8060000F0DA
:103DC0001F008DF80600002456E056F8240057F82E
:103DD0002410A0EB010BBBF1000F01DB594601E001
:103DE000CBF10001084602F0D1FB4FF08F4100906B
:103DF00002F09AFA814601A8005D68B3214908687B
:103E000002F0DCFB834659461F4802F08DFA8046DB
:103E100004E01E49404602F019FC804601A8005DFE
:103E2000401EC0B201A908550028F2D141464846BB
:103E300002F07AFA83464FF07E5102F00FFD82467F
:103E40002AF0004B0F488169584602F0CBFC12D291
:103E50000120A04005430EE00A480169484602F0EF
:103E6000C1FB05D307484169484602F0BBFC02D2BA
:103E70000120A0400543641C032CA6DB28468EE7E6
:103E800020010020606A000800B04C4554E3853FE3
:103E90001FB501210920FEF769F81020ADF80C00CC
:103EA00048208DF80F0003A91548FCF7D5FE102017
:103EB000FCF7DCFD04210120FCF7AEFE1020019090
:103EC00000208DF808000C208DF8090001208DF8E5
:103ED0000A0001A8FCF7D0FD4FF4C060FDF764FEB6
:103EE0000A208DF8000000208DF8010001208DF8D7
:103EF00002008DF803006846FDF71EFE1FBD00009E
:103F0000000C01402DE9F04106460F4614461D46BF
:103F1000FDF7A8F910B90120BDE8F0817106080E7F
:103F2000FDF76EF9FDF7F6F918B9FDF7CFF90120A5
:103F3000F2E73846FDF764F9FDF7ECF9FDF792F981
:103F4000012101EB4601C8B2FDF75AF9FDF7E2F98C
:103F50000DE0012C04D10020FDF71AF9287003E0D0
:103F60000120FDF715F928706D1C601EC4B2002CED
:103F7000EFD1FDF7ABF90020CEE72DE9F041054682
:103F80000E4617469846FDF76DF910B90120BDE8B9
:103F9000F0816906080EFDF733F9FDF7BBF918B992
:103FA000FDF794F90120F2E73046FDF729F9FDF716
:103FB000B1F900240BE018F80400FDF721F9FDF732
:103FC000A9F918B9FDF782F90020E0E7641CBC42AA
:103FD000F1DBFDF77BF90020D9E770B505462846EF
:103FE00000F00FF80446E81C00F00BF844EAC000AB
:103FF00084B2A81D00F005F844EA801084B220467F
:1040000070BD014691F90020002A01DD00201EE06C
:1040100091F90020002A01DA042018E091F901202A
:10402000002A01DD012012E091F90120002A01DAC5
:1040300005200CE091F90220002A01DD022006E0B3
:1040400091F90220002A01DA062000E007207047DB
:104050000920FEF7F3F84820FEF7A2FEFDF7DCFD8D
:10406000FDF7ACFD4FF4E131482001F0B5FB1149FB
:104070001148FEF709FAFCF749FDFCF783FDFDF74F
:1040800047F8FDF779FCFCF7A3FBFCF779FBFFF79A
:10409000FFFE41F61F413120FEF714FB08E0FCF75C
:1040A0003BFFFDF735FB40F2D24104A0FCF7C6F818
:1040B000F5E700000A00002008000020BAECCDE27D
:1040C000BDD3CAD5C2EB2025640D0A0070B50446E5
:1040D000002624F00104184890F8240008B10020BC
:1040E00070BD1548807A10B94FF0FF30F8E71248DC
:1040F000057C807A2040104908740846007CA04264
:1041000002D04FF0FF3600E0002614B90A48007DC7
:1041100018B1012001F018FB02E0002001F014FBAF
:104120003CB100F0E9FA20B1034805744FF0FF30CC
:10413000D6E73046D4E700002001002001461148B0
:10414000407A30B1012807D0022808D003280CD1CA
:1041500008E0022008700BE00420087008E0082046
:10416000087005E01020087002E04FF0FF30704743
:1041700000BF0448C07C18B108784006000E0870E3
:104180000020F4E72001002001461348407A30B1B6
:10419000012808D002280AD0032810D10BE04FF4E0
:1041A000804008800EE041F69C7008800AE04FF4E1
:1041B0008050088006E04FF40060088002E04FF075
:1041C000FF30704700BF0448C07C10B10888401021
:1041D00008800020F5E70000200100200146024889
:1041E000007C0870002070472001002001460F4825
:1041F000007A30B1012807D0022809D003280FD156
:104200000AE0FA2008800EE04FF4FA7008800AE015
:104210004FF47A70088006E04FF4FA60088002E0FC
:104220000020088000BF00BF002070472001002050
:1042300001460E48007A30B1012807D0022808D084
:1042400003280CD108E00A4808600BE00948086020
:1042500008E00948086005E00848086002E04FF0FF
:10426000FF30704700BF0020FBE700002001002066
:10427000000003430000834233330342333383415E
:1042800001461248C07A082817D2DFE800F0170468
:10429000070A0D101318BC20088013E06220088064
:1042A00010E02A2008800DE0142008800AE00A208F
:1042B000088007E00520088004E000BF00BF002060
:1042C000088000BF00BF00207047000020010020D0
:1042D0000146064890F8240010B14FF0FF307047B7
:1042E0000248C08908800020F9E700002001002072
:1042F0001CB580208DF80000654A1268917C644AE4
:10430000526810786B460122FFF737FE10B14FF06C
:10431000FF301CBD6420FEF763FD00208DF8000017
:104320005B4A1268917C5A4A526810786B460122A7
:10433000FFF723FE10B14FF0FF30EAE7544A12684E
:10434000917D534A526810786B460622FFF7DAFDDA
:1043500010B14FF0FF30DCE79DF80500C007400FBB
:104360009DF8031001F0010140EA41009DF80110A1
:1043700001F0010140EA010494B1012C03D10121B3
:104380004348C17431E0022C03D100214048C1747C
:104390002BE021463FA0FBF751FF4FF0FF30B8E77D
:1043A0003B4A1268D1783A4A526810786B4601222B
:1043B000FFF7A8FD10B14FF0FF30AAE79DF800000D
:1043C00000F00F042CB93D48FBF738FF4FF0FF30E9
:1043D0009FE7042C06D13AA0FBF730FF01212C48BF
:1043E000C17402E000212A48C174FF21284881726B
:1043F000FF2027490872FF2125484172C1724FF6FC
:10440000FF71C181FF21017481740121017380F862
:104410002210002180F823104175017516300160CB
:1044200041608160163880F8241080F82510C1841E
:104430004FF4FA6000F0FCFB10B14FF0FF3068E77A
:10444000022000F0C5FA10B14FF0FF3061E72A20DA
:1044500000F068FC10B14FF0FF305AE7322000F056
:10446000A3FC10B14FF0FF3053E70020FFF72EFE02
:1044700010B14FF0FF304CE7002000F0EBFA10B124
:104480004FF0FF3045E7002000F0DCFC002040E763
:1044900020010020556E737570706F727465642012
:1044A000736F6674776172652070726F6475637480
:1044B000207265762025642E0A000000387F0008EF
:1044C00048616C662073656E736974697669747986
:1044D000207061727420666F756E642E0D0A000084
:1044E0002DE9F04385B005460E4690469946294889
:1044F00090F8250020B14FF0FF3005B0BDE8F08303
:1045000016B94FF0FF30F8E7002423E0281B1028ED
:1045100001DD102000E0281B87B232193946204601
:1045200000F0F8FC10B14FF0FF30E6E701AA394681
:10453000204600F0A1F810B14FF0FF30DDE7301950
:104540003A4601A9FBF7F6FE10B16FF00100D4E77F
:10455000E01984B2AC42D9DB4FEA28208DF8000084
:1045600008F0FF008DF801000A4A1268917E094A9E
:10457000526810786B460222FFF7FFFC10B14FF033
:10458000FF30BAE70121034880F82510A0F82690F3
:104590000020B2E72001002038B50446282C02DDB7
:1045A0004FF0FF3038BDDCB9002000F085FB002063
:1045B0008DF8000007208DF801002E4A1268917CCA
:1045C0002C4A526810786B460222FFF7D6FC10B1D5
:1045D0004FF0FF30E6E70021264801750020E1E7B3
:1045E000012000F069FB20208DF80000012C06D18D
:1045F00000208DF80100052000F094FB17E0052C49
:1046000006DC01208DF80100052000F08BFB0EE098
:10461000142C06DC02208DF801000A2000F082FB39
:1046200005E003208DF80100142000F07BFB9DF8CD
:104630000100072101EB8010C0B28DF801000D4A86
:104640001268917C0B4A526810786B460222FFF781
:1046500094FC10B14FF0FF30A4E7082105488172A7
:1046600000210173012101750020FFF72FFD0020BB
:1046700098E7000020010020F8B504460D461646D4
:1046800016B94FF0FF30F8BD1A48807A10B94FF0D4
:10469000FF30F8E720128DF80000E0B28DF801003D
:1046A0009DF801002844134949684989884202DD80
:1046B0004FF0FF30E7E70F4A1268117E0D4A52684B
:1046C00010786B460222FFF758FC10B14FF0FF3014
:1046D000D9E7EAB2074B1B68597D064B5B6818782F
:1046E0003346FFF70FFC10B14FF0FF30CBE700204F
:1046F000C9E700002001002008B56D48807A10B994
:104700004FF0FF3008BD00200090694A1268D17B4D
:10471000674A526810786B460122FFF72EFC10B1F1
:104720004FF0FF30EEE7624A12685179604A5268F2
:1047300010786B460122FFF720FC10B14FF0FF30DC
:10474000E0E75B4A12681179594A526810786B4663
:104750000122FFF712FC10B14FF0FF30D2E75448AE
:1047600090F82400002850D00C200090504A126885
:1047700011794F4A526810786B460122FFF7FDFB12
:1047800010B14FF0FF30BDE7C02000904848807A5C
:1047900000F0010020B19DF8000040F020000090E2
:1047A000434A12681179424A526810786B460122D6
:1047B000FFF7E3FB10B14FF0FF30A3E73C48407C2C
:1047C00010B10220009001E000200090384A1268E9
:1047D000D17B374A526810786B460122FFF7CDFB38
:1047E00010B14FF0FF308DE700200090304A126882
:1047F00051792F4A526810786B460122FFF7BDFBB2
:10480000002852D04FF0FF307CE704200090284A67
:1048100012681179264A526810786B460122FFF718
:10482000ACFB10B14FF0FF306CE72148807C20B921
:104830001F48807A00F0010010B94020009001E08C
:10484000602000901A4A12681179194A526810784B
:104850006B460122FFF791FB10B14FF0FF3051E79B
:104860001348407C10B10120009001E0002000902E
:104870000F4A1268D17B0E4A526810786B460122AB
:10488000FFF77BFB10B14FF0FF303BE7084A12689F
:104890005179074A52681078054B10330122FFF70F
:1048A0006CFB10B14FF0FF302CE700202AE700002E
:1048B000200100202DE9F04F8DB083460F460220E5
:1048C0000C90424890F8240020B1002000F068F9D4
:1048D000012600E0002603A8FFF788FC05A8FFF7E3
:1048E0002DFC01A8FFF7CCFC02A8FFF7F1FC37482C
:1048F00090F80AA004A8FFF771FC002407E000224A
:1049000039465846FFF704F800B902E0641C022C4F
:10491000F5DB00BF022C01D1002528E0002407E0D0
:10492000012206A909A8FEF7F3FF00B902E0641C02
:10493000022CF5DB00BF022C01D1002517E006A9EF
:104940003846FEF709F800F0FF0809A95846FFF7B6
:1049500017FA00F0FF090025B9F1000F01D145F069
:104960000105B8F1000F01D145F0020500BFFF209D
:1049700016490872FF2115484172C1724FF6FF7146
:10498000C181FF218172017401210173BDF80C0006
:1049900000F04EF99DF8140000F01AF8BDF804007C
:1049A00000F0C0F9BDF8080000F0FEF9504600F034
:1049B00049FA9DF81000FFF789FB16B1012000F0BD
:1049C000EFF828460DB0BDE8F08F00002001002070
:1049D00038B504461E48807A10B94FF0FF3038BD14
:1049E000022C06D0042C07D0082C08D0102C0CD197
:1049F00008E0002000900BE00820009008E0102064
:104A0000009005E01820009002E04FF0FF30E6E74C
:104A100000BF0F48407A9DF80010B0EBE10F01D1C4
:104A20000020DCE70A4A1268D179094A52681078F6
:104A30006B460122FFF7A1FA10B14FF0FF30CEE72D
:104A40009DF80000C110024841720020C7E7000035
:104A50002001002038B504465048807CA04201D196
:104A6000002038BD002C46D04C4A126811794B4AC0
:104A7000526810786B460122FFF744FA10B14FF0EC
:104A8000FF30EEE79DF8000020F020000090434A40
:104A900012681179414A526810786B460122FFF77B
:104AA0006CFA10B14FF0FF30DBE70320FEF798F906
:104AB00002200090394890F8220020B19DF80000B3
:104AC00040F080000090354890F8230020B19DF818
:104AD000000040F030000090304A1268117D2F4AEB
:104AE000526810786B460122FFF747FA002851D030
:104AF0004FF0FF30B5E7294A12681179274A52680A
:104B000010786B460122FFF7FDF910B14FF0FF302E
:104B1000A7E72248807A00F0010028B19DF8000044
:104B200040F02000009004E09DF8000020F02000FC
:104B300000901A4A12681179184A526810786B4628
:104B40000122FFF71AFA10B14FF0FF3089E7032076
:104B5000FEF746F9114890F8220010B1802000902D
:104B600001E0002000900D4890F8230020B19DF84E
:104B7000000040F030000090084A1268117D074A9A
:104B8000526810786B460122FFF7F7F910B14FF029
:104B9000FF3066E701488474002062E720010020AE
:104BA00038B50446214890F82400A04201D10020E5
:104BB00038BD24B31D4890F8250010B94FF0FF30E0
:104BC000F6E7002000F0C0FD0020FFF743FF174983
:104BD000C88C00F0E9F80020009014494968087872
:104BE0006B4601222321FFF7C8F901210F4880F805
:104BF0002410012000F0A8FDFFF77EFD13E0002047
:104C000000F0A2FD0948007C009008494968087836
:104C10006B4601222321FFF7B0F90021034880F8F9
:104C20002410FFF769FD0020C2E7000020010020EA
:104C300038B504461F48807A10B94FF0FF3038BDB0
:104C4000FA2C09D0B4F5FA7F09D0B4F57A7F09D0EF
:104C5000B4F5FA6F0CD108E0002000900BE00820BA
:104C6000009008E01020009005E01820009002E07D
:104C70004FF0FF30E3E700BF0E48007A9DF80010C8
:104C8000B0EBE10F01D10020D9E70A4A126891790F
:104C9000084A526810786B460122FFF76EF910B18E
:104CA0004FF0FF30CBE79DF80000C01001490872BB
:104CB0000020C4E72001002038B50446184890F8C9
:104CC0002300A04201D1002038BD14B13020009053
:104CD00001E0002000901248807C20B19DF8000087
:104CE00040F0020000900E4890F8220020B19DF89C
:104CF000000040F080000090094A1268117D084AC7
:104D0000526810786B460122FFF737F910B14FF067
:104D1000FF30D9E7024880F823400020D4E70000A4
:104D20002001002038B504461E48807A10B94FF0A3
:104D3000FF3038BDBC2C02DB0120009015E0622C56
:104D400002DB0220009010E02A2C02DB03200090FE
:104D50000BE0142C02DB0420009006E00A2C02DB9E
:104D60000520009001E0062000900E48C07A9DF8D2
:104D70000010884201D10020DBE70A4A12689178CE
:104D8000084A526810786B460122FFF7F6F810B116
:104D90004FF0FF30CDE79DF800100248C1720020AF
:104DA000C7E700002001002038B504462448807A77
:104DB00010B94FF0FF3038BD214890F8240010B1F1
:104DC0004FF0FF30F7E71E48007D50B134B1282C7A
:104DD00004DCE0B2FFF7E0FB0020ECE70020FFF787
:104DE000DBFB042C01DA042404E0B4F57A7F01DD56
:104DF0004FF47A744FF47A7090FBF4F0401EC0B216
:104E000000900F4A126851780D4A526810786B462C
:104E10000122FFF7B2F810B14FF0FF30CBE79DF859
:104E20000000401C4FF47A7191FBF0F081B204480D
:104E3000C1810146C9894810FFF774FF0020BAE715
:104E40002001002038B5044604F0700010B10120A4
:104E5000009005E014B10020009001E04020009097
:104E60002B4A1268917C2A4A526810786B460122BC
:104E7000FFF783F820B1002125488172481E38BD14
:104E80009DF8000020F040012148017300200090AF
:104E900004F0400020B99DF8000040F004000090AC
:104EA00004F0200020B99DF8000040F002000090BE
:104EB00004F0100020B99DF8000040F001000090BF
:104EC00004F0080020B99DF8000040F03800009080
:104ED0000F4A1268D17C0E4A526810786B46012244
:104EE000FFF74BF820B1002109488172481EC6E740
:104EF00024B1082C02D00020FFF7DEFE04488472A3
:104F0000002101753220FDF76BFF0020B7E700009C
:104F100020010020F8B504460D46164616B94FF09C
:104F2000FF30F8BD1A48807A10B94FF0FF30F8E72B
:104F300020128DF80000E0B28DF801009DF801000C
:104F40002844134949684989884202DD4FF0FF30FF
:104F5000E7E70F4A1268117E0D4A526810786B46D7
:104F60000222FFF70AF810B14FF0FF30D9E7EAB29A
:104F7000074B1B68597D064B5B6818783346FEF774
:104F8000FCFF10B14FF0FF30CBE70020C9E7000075
:104F90002001002010B50246012000E050430B0024
:104FA000A1F10104E1B2F9D110BD0000F8B5FCF7A0
:104FB00024FE102395A200210846FCF761FF9548C6
:104FC0000078012806D1102393A200213220FCF79B
:104FD00057FF14E08F480078022806D110238FA2D3
:104FE00000213220FCF74CFF09E08A4800780328B2
:104FF00005D110238BA200213220FCF741FF1023A2
:105000008AA202210020FCF73BFF8A4800680028A2
:105010000FDA102388A202213720FCF731FF10207D
:105020000323009083480068424202214120FCF79C
:10503000E3FE8048006800280EDD10237FA20221D5
:105040003720FCF71DFF1020032300907948022130
:1050500002684120FCF7D0FE102379A20421002031
:10506000FCF70EFF7848006800280FDA102372A2C0
:1050700004213720FCF704FF10200323009072481E
:105080000068424204214120FCF7B6FE69480068EE
:1050900000280EDD102369A204213720FCF7F0FE62
:1050A0001020032300906848042102684120FCF787
:1050B000A3FE102365A206210020FCF7E1FE0021DB
:1050C0006448006801F08EFA54D210235AA20621D7
:1050D0003720FCF7D5FE5F48006880F000465E4947
:1050E000304601F0B3FA054601F014FA642190FB52
:1050F000F1F4102001232246062100904120FCF704
:105100007BFE5448006880F000465349304601F069
:105110009DFA054601F0FEF90A2190FBF1F090FBA3
:10512000F1F201FB12041020012322460621009017
:105130004B20FCF761FE102348A206215520FCF706
:105140009FFE4448006880F000464349304601F025
:105150007DFA054601F0DEF90A2190FBF1F201FB30
:105160001204102001232246062100905F20FCF744
:1051700043FE4AE0102331A206213720FCF780FECF
:1051800035493448006801F061FA054601F0C2F97A
:10519000642190FBF1F410200123224606210090A7
:1051A0004120FCF729FE2C492A48006801F04EFAFC
:1051B000054601F0AFF90A2190FBF1F090FBF1F206
:1051C00001FB1204102001232246062100904B20EF
:1051D000FCF712FE102321A206215520FCF750FEF9
:1051E0001D491C48006801F031FA054601F092F9AA
:1051F0000A2190FBF1F201FB120410200123224648
:10520000062100905F20FCF7F7FDF8BD57415920BB
:105210003A00000000000020444D50004B616C6DCE
:10522000616E000048756275000000004C73706587
:1052300065643A000C0000202D0000002B000000E7
:105240005273706565643A0010000020416E676C0F
:10525000653A000004000020000020412E000000FC
:10526000F8B510238AA200210846FCF709FE8A49F6
:105270008A48006801F0EAF9054601F04BF964211B
:1052800090FBF1F4102001232246002100902820F9
:10529000FCF7B2FD80498148006801F0D7F9054666
:1052A00001F038F90A2190FBF1F090FBF1F201FBDB
:1052B0001204102001232246002100903220FCF726
:1052C0009BFD102376A200213C20FCF7D9FD7249FA
:1052D0007248006801F0BAF9054601F01BF90A218D
:1052E00090FBF1F201FB1204102001232246002161
:1052F00000904620FCF780FD10236AA203210020C5
:10530000FCF7BEFD00216A48006801F06BFA33D853
:10531000102368A203215120FCF7B2FD5E496448C6
:10532000006801F093F9054601F0F4F80A2190FBBA
:10533000F1F4102001232246032100905A20FCF7AB
:105340005BFD102356A203216420FCF799FD52490E
:105350005748006801F07AF9054601F0DBF80A21A8
:1053600090FBF1F201FB12041020012322460321DD
:1053700000906E20FCF740FD00214D48006801F0D0
:1053800031F939D210234CA203215120FCF778FDCA
:105390004748006880F000463F49304601F056F922
:1053A000054601F0B7F80A2190FBF1F41020012323
:1053B0002246032100905A20FCF71EFD102338A23C
:1053C00003216420FCF75CFD3948006880F000464A
:1053D0003149304601F03AF9054601F09BF80A21BF
:1053E00090FBF1F201FB120410200123224603215D
:1053F00000906E20FCF700FD102330A20621002053
:10540000FCF73EFD24492F48006801F01FF90546CE
:1054100001F080F8642190FBF1F410200123224672
:10542000062100902820FCF7E7FC1B49254800686E
:1054300001F00CF9054601F06DF80A2190FBF1F03E
:1054400090FBF1F201FB12041020012322460621F9
:1054500000903220FCF7D0FC102311A206213C2042
:10546000FCF70EFD0C491748006801F0EFF80546FF
:1054700001F050F80A2190FBF1F201FB1204102018
:1054800001232246062100904620FCF7B5FCF8BD1A
:105490004B70313A0000000000002041380000202D
:1054A0002E0000005365745F416E676C653A000022
:1054B000340000202B0000002D0000004B64313A26
:1054C000000000004000002038B55F495F480068D8
:1054D00001F0BCF8044601F01DF8642190FBF1F0E6
:1054E0005B49086058495948006801F0AFF8044624
:1054F00001F010F8642190FBF1F201FB12000A2187
:1055000090FBF1F0534908604F495048006801F0A2
:105510009DF8044600F0FEFF0A2190FBF1F201FB2A
:1055200012004D49086048494C48006801F08EF867
:10553000044600F0EFFF642190FBF1F04849086059
:1055400041494648006801F081F8044600F0E2FF56
:10555000642190FBF1F201FB12000A2190FBF1F0B3
:105560004049086038493D48006801F06FF804463A
:1055700000F0D0FF0A2190FBF1F201FB12003A4942
:105580000860102339A200210846FCF779FC10209E
:10559000012300902E48002102682820FCF72CFCF3
:1055A000102334A200213120FCF76AFC10200123D3
:1055B00000902848002102683920FCF71DFC1020CB
:1055C000012300902448002102684120FCF714FCCC
:1055D000102329A202210020FCF752FC2848006871
:1055E00000F0B4FF0446102001232246022100905F
:1055F0002820FCF701FC102322A204210020FCF744
:105600003FFC102001230090154804210268282047
:10561000FCF7F2FB102317A204213120FCF730FC29
:105620001020012300900F48042102683920FCF764
:10563000E3FB1020012300900B4804210268412065
:10564000FCF7DAFB38BD00000000C842440000202F
:10565000580100205C010020600100204C00002067
:1056600064010020680100206C0100204B70323A78
:10567000000000002E0000004B69323A00000000DC
:10568000480000204B64323A0000000070B588B03A
:1056900002A905A8FFF70EF90446072C3FD101A87F
:1056A000FEF7C6FD059800F071FF0646019900F06F
:1056B000CDFF054600F02EFF0590069800F066FF2E
:1056C0000646019900F0C2FF054600F023FF069050
:1056D000079800F05BFF0646019900F0B7FF05460A
:1056E00000F018FF079005A8FDF708FE6846FEF7D2
:1056F0004BFDBDF80010029848430290BDF8001021
:10570000039848430390BDF8001004984843049060
:1057100002A8FDF723FD03A0FAF790FD00BF08B033
:1057200070BD000073657474696E6720626961738F
:105730002073756363657366756C6C79202E2E2EED
:105740002E2E2E0D0A00000038B50446214890F890
:105750002400C0B114B10220009001E000200090AC
:105760001C4A1268D17B1B4A526810786B46012292
:10577000FEF703FC10B14FF0FF3038BD9DF800106C
:105780001448417423E01348807A10B94FF0FF3079
:10579000F3E724B10F48407C08B10020EDE714B1D5
:1057A0000120009001E0002000900A4A1268D17B9D
:1057B000084A526810786B460122FEF7DEFB10B1F2
:1057C0004FF0FF30D9E79DF80010024841740020E7
:1057D000D3E70000200100202DE9F05F05460E46CA
:1057E000300100F0EBFE8146284905FB01F000F096
:1057F000E5FE8246494600F097FD0746384600F030
:10580000A5FE84B2204600F0D9FE8346394601F059
:105810001AF882464FF0834100F018FF814600F0ED
:1058200095FE80464FF6FF7000EA041404EB080072
:1058300084B21748806940F0040015498861084621
:10584000806940F4804088611248006820F47F60DD
:10585000104908600846006840F40B6008600C4876
:10586000C06840F480400A49C8600846C06820F417
:105870008040C86008480480001D008842F20C0186
:1058800008430549091D0880BDE8F09F40420F000C
:1058900000100240040801400838014021F0004295
:1058A000A2F16052B2F5801F01F0004328BFD2F18F
:1058B0007F6C0BD95FEA001C43EAC20242EB5070D6
:1058C00018BF704728BF20F001007047B2F5801F55
:1058D000BCBF184670474FEA410C1CF5001F02D2AE
:1058E000084600F07ABF70B500F004FB00000089A4
:1058F000FFF7F6BF4FF00040A0F5800070470000B2
:1059000010B591EA030F48BF83F0004300F1908384
:10591000841A71EB030C05D2121943EB0C03001B24
:1059200061EB0C01DFF824E14FEA1154A4EB135CA6
:105930001EEA430F18BF9EEA445F73D023EA0E03AA
:10594000DCF1200E21EA045143F4801332D322FA11
:105950000CFE10EB0E0023FA0CFE41EB0E01CCF115
:10596000200E03FA0EFE10EB0E0051F10001B1F50E
:10597000801FCCF1200E32D201EB045112FA0EF24C
:10598000BDE8104058BF7047401C38BF5FEA420274
:1059900018BF7047002814BF20F0010041F100013A
:1059A0004FEA410313F5001F38BF7047A1F1C04112
:1059B00000F0EEBA012A43EB0302ACF1200CDCF15B
:1059C0001F0E32BF4FF0000E23FA0CF310EB030052
:1059D00041EB0451B4EB115FD0D0A1EB045101F5C0
:1059E000801149085FEA300001EB04510ED350F1F9
:1059F000000038BF12FA0EFE08D1BDE81040C9E71A
:105A0000401C38BF5FEA4202CAD1C3E7BDE810407C
:105A10004FEA410313F5001F38BF7047A1F1C041A1
:105A200000F0B6BA9EEA445F08D011EA5E0FBDE806
:105A3000104004BF01F0004100207047BDE8104055
:105A400070B500F057FA00BF64FBBE3E0000E0FFF7
:105A500002494FF0000000F076BF00BF0000F87F61
:105A6000491058BFC1F140415B1058BFC3F14043DA
:105A70008B42EFF3008070472DE9C04130B4DFF86E
:105A8000A0C23CEA111418BF3CEA131400F0EC80E9
:105A900081EA03051CEA111444EAD57418BF1CEA14
:105AA000131500F0C780A4EB05044FF0004545EA4C
:105AB000C12145EAC32341EA505143EA525304F15C
:105AC0007F74994204F500344FEAC0204FEAC222A5
:105AD00008BF904200F09C804FEA13650FF2401619
